:100000000C9434000C9446000C9446000C9446006A
:100010000C9446000C9446000C9446000C94650029
:100020000C9446000C9446000C9446000C94480036
:100030000C9446000C9446000C9446000C94460028
:100040000C9446000C9446000C9446000C94460018
:100050000C9446000C9446000C9446000C94460008
:100060000C9446000C94460011241FBECFEFD8E03C
:10007000DEBFCDBF21E0A0E0B1E001C01D92A23003
:10008000B207E1F70E9482000C94A3000C940000D8
:100090001F920F920FB60F9211248F939F9380910E
:1000A00001018F5F8093010180910101823030F066
:1000B00095B182E0892785B9109201019F918F91B6
:1000C0000F900FBE0F901F9018951F920F920FB6B2
:1000D0000F9211248F939F93809100018F5F8093E3
:1000E000000180910001823330F095B184E08927CE
:1000F00085B9109200019F918F910F900FBE0F90C4
:100100001F90189584B1866084B910928000E1E850
:10011000F0E088E0808388E09DE3909389008093FD
:10012000880082E080936F00908195609083809337
:10013000B0009BE99093B3008093700087E08093B8
:0A014000B1007894FFCFF894FFCFD0
:00000001FF
