:100000000C9434000C9446000C9446000C9446006A
:100010000C9446000C9446000C9446000C94460048
:100020000C9446000C9446000C9446000C94460038
:100030000C9446000C9446000C9446000C94460028
:100040000C9446000C9446000C9446000C94460018
:100050000C9446000C9446000C9446000C94460008
:100060000C9446000C94460011241FBECFEFD8E03C
:10007000DEBFCDBF21E0A0E0B1E001C01D92A13004
:10008000B207E1F70E944E000C9481000C9400002E
:1000900095B1907F8F70892B85B9089584B18F6059
:1000A00084B98AB18B7F8AB98BB184608BB9809116
:1000B00000010E9448004A99FECF2FEF80E792E0AE
:1000C000215080409040E1F700C000004A99F3CFF2
:1000D000809100018F5F80930001803110F01092B9
:1000E0000001809100010E9448004A9BFECF2FEF43
:1000F00080E792E0215080409040E1F700C000008E
:06010000DACFF894FFCFF6
:00000001FF
