:100000000C9434000C9451000C9451000C94510049
:100010000C9451000C9451000C9451000C9451001C
:100020000C9451000C9451000C9451000C9451000C
:100030000C9451000C9451000C9451000C945100FC
:100040000C9451000C9451000C9451000C945100EC
:100050000C9451000C9451000C9451000C945100DC
:100060000C9451000C94510011241FBECFEFD8E026
:10007000DEBFCDBF11E0A0E0B1E0E4E1F9E102C0F4
:1000800005900D92A038B107D9F721E0A0E8B1E0C2
:1000900001C01D92A839B207E1F70E9475040C94C3
:1000A000880C0C940000CF93DF93C82F0E94470464
:1000B0008CEE0E9457048C2F0E9457040E94470424
:1000C0008DEE0E9457040E946104D82F0E946B0499
:1000D000C82F0E944F048C2F90E0982F88278D2BDB
:1000E000DF91CF91089588E80E9453009093970183
:1000F000809396018AE80E94530090939501809323
:1001000094018CE80E945300909393018093920194
:100110008EE80E945300909391018093900180E9B2
:100120000E94530090938F0180938E0182E90E9478
:10013000530090938D0180938C0184E90E945300B9
:1001400090938B0180938A0186E90E9453009093DB
:1001500089018093880188E90E9453009093870168
:10016000809386018AE90E945300909385018093D1
:1001700084018CE90E945300909383018093820153
:100180008EE90E94530090938101809380010E9428
:1001900047048CEE0E94570485EF0E94570480E0CC
:1001A0000E9457040E944F040E9447048CEE0E9454
:1001B000570484EF0E9457048BE20E9457040E9468
:1001C0004F0408952F923F924F925F926F927F92C9
:1001D0008F929F92AF92BF92CF92DF92EF92FF9257
:1001E0000F931F93CF93DF93CDB7DEB76A970FB608
:1001F000F894DEBF0FBECDBF9A8F898F788B6F8743
:100200000E9447048CEE0E94570487EF0E94570417
:100210000E9447048DEE0E9457040E946104D82E6C
:100220000E946104E82E0E946104F82E0E9461047D
:10023000C82E0E946104082F0E946B04182F0E9490
:100240004F044D2D50E060E070E0DB01CA01072E45
:100250007CE0880F991FAA1FBB1F7A95D1F7702DDC
:100260004E2D50E060E070E0440F551F661F771F71
:10027000440F551F661F771F440F551F661F771FBA
:10028000440F551F661F771F482B592B6A2B7B2B5A
:10029000F694F694F694F694DB01CA018F29898BC3
:1002A0009A8BAB8BBC8BD12CE12CF12CD701C601E6
:1002B000072E7CE0880F991FAA1FBB1F7A95D1F7E4
:1002C000702DC02ED12CE12CF12CCC0CDD1CEE1CA1
:1002D000FF1CCC0CDD1CEE1CFF1CCC0CDD1CEE1C32
:1002E000FF1CCC0CDD1CEE1CFF1CC82AD92AEA2AF4
:1002F000FB2A12951F70C12AB701A601689412F853
:1003000075956795579547951694D1F78090960106
:1003100090909701A12CB12CD501C401880F991F91
:10032000AA1FBB1F9A01AB01281B390B4A0B5B0BA1
:10033000A0919401B09195010E942B082B013C01E2
:10034000032E3BE075946794579447943A95D1F700
:10035000302DD701C601689413F8B595A7959795E8
:1003600087951694D1F7BC01CD01681979098A09DE
:100370009B099B01AC010E9410089B01AC01012E5E
:100380001CE055954795379527951A95D1F7102D6F
:10039000A0919201B09193010E942B08DC01CB0146
:1003A000072E7EE0B595A795979587957A95D1F715
:1003B000702D480E591E6A1E7B1ED301C201880F84
:1003C000991FAA1FBB1F880F991FAA1FBB1F840D4F
:1003D000951DA61DB71D80589F4FAF4FBF4F692F6A
:1003E0007A2F8B2F992787FD9A950E94C90620E0C6
:1003F00030E048EC52E40E941906A98DBA8D6D9345
:100400007D938D939C93139773016201FF0CCC082D
:10041000DC2C7601242D352D462D572D6C2D7C2D71
:100420008C2D9C2D345F414051096109710981096E
:10043000910929833A83442E552E662E772E282E35
:10044000392EA22EB32EC42ED52EE62EF72E082F2F
:10045000192F0E9433082B833C834D835E836F8367
:10046000788789879A87B0908701A09086011B2D95
:10047000110F110BC12ED12EE12EF12E012F0E9452
:1004800033082B873C874D875E87862E972E8E8B71
:100490009D8BB0908901A09088011B2D110F110B2D
:1004A000C12ED12EE12EF12E012F29813A81442D2A
:1004B000552D662D772D822D932D0E94330801E155
:1004C0000E946309A22EB32EC42ED52EE62EF72E3F
:1004D000082F192F2B853C854D855E85682D792D3C
:1004E0008E899D890E949A09822E932E4C875B8764
:1004F000B62FA72FF82FE92F30918B0120918A0179
:10050000932F990F990B492F592F692F792F892FE5
:1005100003E20E946309A22EB32EC42ED52EE62E2E
:10052000F72E082F192F282D392D4C855B856B2F21
:100530007A2F8F2F9E2F0E949A092B873C874D87F9
:100540005E876D8B7E8B8F8B988FB0908D01A09086
:100550008C011B2D110F110BC12ED12EE12EF12E6E
:10056000012F2B813C814D815E816F81788589854A
:100570009A850E94330808E00E947C092B833C8303
:100580004D835E83862E972E88879F83B0908F0140
:10059000A0908E011B2D110F110BC12ED12EE12E1B
:1005A000F12E012F29813A81442D552D662D772D6D
:1005B000822D932D0E9433080CE00E946309A22E25
:1005C000B32EC42ED52EE62EF72E082F192F2B81F1
:1005D0003C814D815E81682D792D88859F810E94A7
:1005E0009A0970588F4F9F4FA0909001B090910141
:1005F0001501B32CC12CD12CE12CF12C00E010E022
:100600000E94330801E20E947C09422E532E642E80
:10061000752E862E972E8A839983A0E00E94AC09BE
:1006200039F4EF85F889108211821282138210C189
:1006300080E090E0A0E1B0E029893A894B895C89AB
:10064000821B930BA40BB50B6C017D01FF0CCC0836
:10065000DC2C7601282F392F4A2F5B2F6C2D7C2D17
:100660008C2D9C2D0FE10E946309AB84BC84CD844A
:10067000DE84ED88FE880F89188D0E94A3090F2E55
:10068000F5E3AF2EF02D0F2EFCE0BF2EF02DC12C88
:10069000D12CE12CF12C00E010E00E943308A42CB6
:1006A000B52CC62CD72CE82CF92C0A8119810E9474
:1006B0008E082C873B8749835A836B837C838D8389
:1006C0009E83F0918101A0918001EF2FEE0FEE0B40
:1006D0000DE00E947C09222E332E442E552E662ECC
:1006E000772E882E992EA22EB32EC42ED52EE62E2E
:1006F000F72E082F192F2A2F3F2F4E2F5E2F6E2FE8
:100700007E2F8E2F9E2F0E943308A22EB32EC42E32
:10071000D52EE62EF72E082F192F222D332D442DFE
:10072000552D662D772D882D992D0E94330809E1CE
:100730000E947C09522E432E342E252E6F837887FB
:1007400089879A87B0908301A09082011B2D110F99
:10075000110BC12ED12EE12EF12E012F2C853B85C0
:1007600049815A816B817C818D819E810E943308F1
:1007700003E10E947C09622E732E842E952EB62FE3
:10078000A72FF82FE92F2C853B8549815A816B8152
:100790007C818D819E81A52CB42CC32CD22CEF8022
:1007A000F88409851A850E949A09A22EB32EC42EB8
:1007B000D52EE62EF72E082F192F262D372D482D52
:1007C000592D6B2F7A2F8F2F9E2F0E949A0908E0A8
:1007D0000E947C09822E932E4A835983B62FA72F1D
:1007E000F82FE92F3091850120918401932F990FE3
:1007F000990B492F592F692F792F892F04E00E94D7
:100800006309A22EB32EC42ED52EE62EF72E082F66
:10081000192F282D392D4A8159816B2F7A2F8F2F2F
:100820009E2F0E949A090E94C10620E030E040E815
:100830005BE30E94A30720E030E048EC52E40E9412
:100840001906AF85B8896D937D938D939C9313970B
:100850006A960FB6F894DEBF0FBECDBFDF91CF9181
:100860001F910F91FF90EF90DF90CF90BF90AF90CE
:100870009F908F907F906F905F904F903F902F90C0
:10088000089588E48093B8001092B900089584EA2E
:100890008093BC008091BC008823E4F7089584E92C
:1008A0008093BC008091BC0084FDFCCF08958093B0
:1008B000BB0084E88093BC008091BC008823E4F7EF
:1008C000089584EC8093BC008091BC008823E4F7F9
:1008D0008091BB00089584E88093BC008091BC00A7
:1008E0008823E4F78091BB000895CF93DF93CDB7C1
:1008F000DEB7A8970FB6F894DEBF0FBECDBF198242
:100900001A821B821C821D821E821F8218860E94F0
:1009100041040E943F050E947300BE016B5F7F4F40
:10092000CE0101960E94E20089809A80AB80BC8053
:10093000C501B4010E948B066B017C01072E000CDF
:10094000880B990B0E94C9069B01AC01C501B4013B
:100950000E94AC0520E030E040E251E40E94A30791
:100960000E948B06162FA72E6D817E818F81988520
:100970000E948B06062FB72EAF921F93DF92CF9265
:1009800080E091E09F938F931F9210E11F937E016F
:1009900029E0E20EF11CFF92EF920E94C709BF927C
:1009A0000F938EE091E09F938F931F921F938E0180
:1009B000075E1F4F1F930F930E94C7090E941F05D8
:1009C0006AE082E00E940E05C7010E949F056AE06E
:1009D00084E00E940E05C8010E949F058FEF97EAF0
:1009E00021E6815090402040E1F700C000000FB6A2
:1009F000F894DEBF0FBECDBF90CFCF93C82F0E941B
:100A0000470488E70E94570480E00E9457048C2F17
:100A10000E9457040E944F04CF910895CF93C62F90
:100A200080550E94FD048C2F8F700E94FD048C2F36
:100A300082958F70805F0E94FD04CF910895CF93BF
:100A4000DF93D0E017C060E08D2F0E940E050E945A
:100A5000470488E70E94570480E40E945704C0E0DE
:100A600004C080E00E945704CF5FCC23D4F70E94DB
:100A70004F04DF5FD83038F3DF91CF9108958EEACD
:100A80000E94FD0480E20E94FD0482E00E94FD04B9
:100A90008DE80E94FD0484E10E94FD048FEA0E941B
:100AA000FD040E941F050895CF93DF938032A9F0C3
:100AB00090ED980F9B3018F4D2EDD80F1BC0813405
:100AC00071F0823471F0833471F0843471F08035C8
:100AD00071F0843571F0D0E00DC0D0E00BC0DEE0E5
:100AE00009C0DFE007C0D0E105C0D1E103C0D2E119
:100AF00001C0D3E10E94470488E70E94570480E4C4
:100B00000E945704C0E011C02D2F30E0F901EE0F14
:100B1000FF1FEE0FFF1FE20FF31FE55EFE4FEC0F0E
:100B2000F11D80810E945704CF5FC53068F380E0DB
:100B30000E9457040E944F04DF91CF910895CF93F4
:100B4000DF93EC0103C021960E9454058881811136
:100B5000FACFDF91CF9108955058BB27AA270E9462
:100B6000C4050C9469070E945B0738F00E94620775
:100B700020F039F49F3F19F426F40C9448070EF442
:100B8000E095E7FB0C944207E92F0E947A0758F39F
:100B9000BA17620773078407950720F079F4A6F562
:100BA0000C949C070EF4E0950B2EBA2FA02D0B0190
:100BB000B90190010C01CA01A0011124FF27591BA2
:100BC00099F0593F50F4503E68F11A16F040A22FA8
:100BD000232F342F4427585FF3CF46953795279519
:100BE000A795F0405395C9F77EF41F16BA0B620B18
:100BF000730B840BBAF09150A1F0FF0FBB1F661F5F
:100C0000771F881FC2F70EC0BA0F621F731F841FA1
:100C100048F4879577956795B795F7959E3F08F0C7
:100C2000B0CF9395880F08F09927EE0F9795879589
:100C300008950E942D060C9469070E94620758F0DF
:100C40000E945B0740F029F45F3F29F00C944207B3
:100C500051110C949D070C9448070E947A0768F381
:100C60009923B1F3552391F3951B550BBB27AA2765
:100C700062177307840738F09F5F5F4F220F331F9F
:100C8000441FAA1FA9F335D00E2E3AF0E0E832D067
:100C900091505040E695001CCAF72BD0FE2F29D06A
:100CA000660F771F881FBB1F261737074807AB073C
:100CB000B0E809F0BB0B802DBF01FF2793585F4FB1
:100CC0003AF09E3F510578F00C9442070C949D0732
:100CD0005F3FE4F3983ED4F3869577956795B79593
:100CE000F7959F5FC9F7880F911D9695879597F99E
:100CF0000895E1E0660F771F881FBB1F6217730717
:100D00008407BA0720F0621B730B840BBA0BEE1F2B
:100D100088F7E09508950E9492066894B1110C94AA
:100D20009D0708950E94820788F09F5798F0B92F79
:100D30009927B751B0F0E1F0660F771F881F991F10
:100D40001AF0BA95C9F714C0B13091F00E949C070F
:100D5000B1E008950C949C07672F782F8827B85F1F
:100D600039F0B93FCCF3869577956795B395D9F768
:100D70003EF490958095709561957F4F8F4F9F4F72
:100D8000089597FB16F40E944B070C940507E8940E
:100D900009C097FB3EF490958095709561957F4FC3
:100DA0008F4F9F4F9923A9F0F92F96E9BB27939571
:100DB000F695879577956795B795F111F8CFFAF481
:100DC000BB0F11F460FF1BC06F5F7F4F8F4F9F4FB2
:100DD00016C0882311F096E911C0772321F09EE810
:100DE000872F762F05C0662371F096E8862F70E076
:100DF00060E02AF09A95660F771F881FDAF7880F50
:100E00009695879597F90895E894F92F96EBFF2327
:100E100081F0121613061406440B9395F6958795E8
:100E20007795679557954040FF23B9F71BC09927E1
:100E30000895882351F49850D2F7872B762F652F89
:100E4000542F432F322F20E0B1F31216130614064D
:100E5000440B88233AF09A95440F551F661F771F5D
:100E6000881FCAF755234AF4440F551F11F460FF39
:100E700004C06F5F7F4F8F4F9F4F880F9695879568
:100E800097F9089597F99F6780E870E060E008950A
:100E90009FEF80EC089590958095709560955095A2
:100EA0004095309521953F4F4F4F5F4F6F4F7F4F8C
:100EB0008F4F9F4F089500240A94161617061806A0
:100EC0000906089500240A9412161306140605064E
:100ED0000895092E0394000C11F4882352F0BB0FDF
:100EE00040F4BF2B11F460FF04C06F5F7F4F8F4F42
:100EF0009F4F089557FD9058440F551F59F05F3F7D
:100F000071F04795880F97FB991F61F09F3F79F02B
:100F100087950895121613061406551FF2CF4695AD
:100F2000F1DF08C0161617061806991FF1CF86952F
:100F30007105610508940895E894BB276627772713
:100F4000CB0197F908950E94B6070C9469070E9497
:100F50005B0738F00E94620720F0952311F00C9493
:100F600042070C94480711240C949D070E947A07AD
:100F700070F3959FC1F3950F50E0551F629FF001EC
:100F8000729FBB27F00DB11D639FAA27F00DB11D05
:100F9000AA1F649F6627B00DA11D661F829F22278E
:100FA000B00DA11D621F739FB00DA11D621F839F15
:100FB000A00D611D221F749F3327A00D611D231FEB
:100FC000849F600D211D822F762F6A2F11249F5739
:100FD00050409AF0F1F088234AF0EE0FFF1FBB1F3C
:100FE000661F771F881F91505040A9F79E3F5105FB
:100FF00080F00C9442070C949D075F3FE4F3983E09
:10100000D4F3869577956795B795F795E7959F5FA4
:10101000C1F7FE2B880F911D9695879597F9089536
:10102000DB018F939F930E942008BF91AF91A29FF5
:10103000800D911DA39F900DB29F900D11240895D6
:101040000E94B809A59F900DB49F900DA49F800D9C
:10105000911D11240895B7FF0C9420080E942008C8
:10106000821B930B0895DF93CF931F930F939A9D49
:10107000F02D219FF00D8B9DF00D8A9DE02DF10D3F
:10108000039FF00D029FE00DF11D4E9DE00DF11D3F
:101090005E9DF00D4F9DF00D7F936F93BF92AF92C9
:1010A0005F934F93D5010E94B8098B01AC01D70122
:1010B0000E94B809EB01E80FF91FD6010E948308CE
:1010C0002F913F91D6010E94B809C60FD71FE81F84
:1010D000F91FAF91BF910E9483082F913F910E9409
:1010E000B809C60FD71FE81FF91FD6010E94B8091B
:1010F000E60FF71F9801BE01CF0111240F911F9138
:10110000CF91DF9108950E94B809460F571FC81F5D
:10111000D91F08F431960895689401C0E894F92F16
:10112000F12B12F00C94C008A0E0B0E0EAE9F8E07E
:101130000C943209092E059422F40E941C091123F3
:1011400092F4F0E80F26FFEFE094F09400951095EC
:10115000B094C094D094A194BF0ACF0ADF0AEF0ADA
:10116000FF0A0F0B1F0B0E94CB0807FC0E941C09F3
:10117000CDB7DEB7ECE00C944E09689401C0E8945A
:101180008F929F92CF93DF930E94CB08DF91CF91F4
:101190009F908F90089588249924F401E401B0E48D
:1011A0009F93AA279A158B049C04ED05FE05CF0595
:1011B000D007A10798F4AD2FDC2FCF2FFE2FE92DFC
:1011C000982C892E982F872F762F652F542F432FF9
:1011D000322F2227B85031F7BF9127C01B2EBF9165
:1011E000BB27220F331F441F551F661F771F881F01
:1011F000991F881C991CEE1FFF1FCC1FDD1FAA1F03
:10120000BB1F8A149B04EC05FD05CE05DF05A00776
:10121000B10748F08A189B08EC09FD09CE09DF09DF
:10122000A00BB10B21601A94E1F62EF49401AF01EA
:10123000BE01CD01000C0895609570958095909544
:1012400030954095509521953F4F4F4F5F4F6F4FD1
:101250007F4F8F4F9F4F08952F923F924F925F92F3
:101260006F927F928F929F92AF92BF92CF92DF92B6
:10127000EF92FF920F931F93CF93DF93CDB7DEB71B
:10128000CA1BDB0B0FB6F894DEBF0FBECDBF0994AF
:101290002A88398848885F846E847D848C849B8406
:1012A000AA84B984C884DF80EE80FD800C811B8114
:1012B000AA81B981CE0FD11D0FB6F894DEBF0FBE43
:1012C000CDBFED0108950F93083090F0982F872F30
:1012D000762F652F542F432F322F22270850F4CF1B
:1012E000220F331F441F551F661F771F881F991F2A
:1012F0000A95B2F70F91089597FB10F8169400081D
:101300000F93083098F00850232F342F452F562F75
:10131000672F782F892F902DF4CF05949795879577
:101320007795679557954795379527950A95AAF725
:101330000F9108952A0D3B1D4C1D5D1D6E1D7F1DD7
:10134000801F911F08952A193B094C095D096E09F8
:101350007F09800B910B08950024A7FD00942A17A4
:10136000300540055005600570058005900508951D
:10137000A29FB001B39FC001A39F700D811D1124D6
:10138000911DB29F700D811D1124911D0895AEE035
:10139000B0E0EDECF9E00C943A090D891E898F89D3
:1013A000988D26E02C831A83098397FF02C080E082
:1013B00090E801979E838D83AE01455E5F4F698DF6
:1013C0007A8DCE0101960E94F7094D815E8157FD0D
:1013D0000AC02F813885421753070CF49A01F8018F
:1013E000E20FF31F10822E96E4E00C945609ABE056
:1013F000B0E0EDEFF9E00C942C096C017B018A015F
:10140000FC0117821682838181FFCCC1CE01019637
:101410003C01F6019381F70193FD859193FF819142
:101420007F01882309F4BAC1853239F493FD85918F
:1014300093FF81917F01853229F4B60190E00E94EB
:10144000EE0BE7CF912C212C312CFFE1F315D8F0D6
:101450008B3279F038F4803279F08332A1F4232D85
:1014600020611DC08D3261F0803369F4232D21602D
:1014700016C0832D8260382EE32DE4603E2E2AC0F4
:10148000F32DF8601DC037FC2DC020ED280F2A3049
:1014900040F08E32B9F436FC81C1232D2064322E07
:1014A00019C036FE06C08AE0989E200D1124922EA7
:1014B00011C0EAE02E9E200D1124222EF32DF062A1
:1014C0003F2E08C08C3621F4832D8068382E02C050
:1014D000883641F4F70193FD859193FF81917F0157
:1014E0008111B3CF982F9F7D9554933028F40C5FD2
:1014F0001F4F9FE399830DC0833631F0833771F01E
:10150000833509F059C021C0F801808189830E5FBD
:101510001F4F88248394912C530113C02801F2E0BB
:101520004F0E511CF801A080B18036FE03C0692D1A
:1015300070E002C06FEF7FEFC5010E94E30B4C012A
:101540008201F32DFF773F2E16C0280122E0420EC4
:10155000511CF801A080B18036FE03C0692D70E0F7
:1015600002C06FEF7FEFC5010E94D80B4C01F32D35
:10157000F0683F2E820133FC1BC0822D90E088165C
:101580009906B0F4B60180E290E00E94EE0B2A9436
:10159000F4CFF50137FC859137FE81915F01B601EB
:1015A00090E00E94EE0B21102A9421E0821A91080B
:1015B0008114910471F7E8C0843611F0893641F541
:1015C000F80137FE07C060817181828193810C5FD1
:1015D0001F4F08C060817181072E000C880B990B8A
:1015E0000E5F1F4FF32DFF763F2E97FF09C090959A
:1015F0008095709561957F4F8F4F9F4FF0683F2E7C
:101600002AE030E0A3010E942A0C882E861845C0EB
:10161000853731F4232D2F7EB22E2AE030E025C00D
:10162000932D997FB92E8F36C1F018F4883579F053
:10163000B5C0803719F0883721F0B0C0E92FE061DC
:10164000BE2EB4FE0DC0FB2DF460BF2E09C034FECB
:101650000AC0292F2660B22E06C028E030E005C05F
:1016600020E130E002C020E132E0F801B7FE07C01F
:1016700060817181828193810C5F1F4F06C0608100
:10168000718180E090E00E5F1F4FA3010E942A0C41
:10169000882E8618FB2DFF773F2E36FE0DC0232D9A
:1016A0002E7FA22E891458F434FE0BC032FC09C0E0
:1016B000832D8E7EA82E05C0B82CA32C03C0B82C79
:1016C00001C0B92CA4FE0FC0FE01E80DF11D808100
:1016D000803321F49A2D997EA92E09C0A2FE06C05E
:1016E000B394B39404C08A2D867809F0B394A3FC14
:1016F00011C0A0FE06C0B21488F4280C922C9B18CE
:101700000EC0B21460F4B60180E290E00E94EE0BCD
:10171000B394F7CFB21418F42B1802C0982C212CD4
:10172000A4FE10C0B60180E390E00E94EE0BA2FE82
:1017300017C0A1FC03C088E790E002C088E590E0F4
:10174000B6010CC08A2D867859F0A1FE02C08BE24A
:1017500001C080E2A7FC8DE2B60190E00E94EE0B92
:10176000891438F4B60180E390E00E94EE0B9A945D
:10177000F7CF8A94F301E80DF11D8081B60190E066
:101780000E94EE0B8110F5CF222009F442CEB60163
:1017900080E290E00E94EE0B2A94F6CFF60186815B
:1017A000978102C08FEF9FEF2B96E2E10C944809DE
:1017B000FC010590615070400110D8F7809590951C
:1017C0008E0F9F1F0895FC01615070400190011021
:1017D000D8F7809590958E0F9F1F08950F931F93B4
:1017E000CF93DF93FB01238121FD03C08FEF9FEF98
:1017F0002CC022FF16C046815781248135814217B3
:10180000530744F4A081B1819D012F5F3F4F318385
:1018100020838C93268137812F5F3F4F3783268328
:1018200014C08B01EC01FB010084F185E02D0995CA
:10183000892BE1F6D80116968D919C911797019608
:1018400017969C938E931697CE01DF91CF911F919F
:101850000F910895FA01AA27283051F1203181F122
:10186000E8946F936E7F6E5F7F4F8F4F9F4FAF4FA8
:10187000B1E03ED0B4E03CD0670F781F891F9A1FBB
:10188000A11D680F791F8A1F911DA11D6A0F711D6F
:10189000811D911DA11D20D009F468943F912AE07B
:1018A000269F11243019305D3193DEF6CF01089563
:1018B000462F4770405D4193B3E00FD0C9F7F6CF94
:1018C000462F4F70405D4A3318F0495D31FD40525C
:1018D000419302D0A9F7EACFB4E0A69597958795F2
:1018E00077956795BA95C9F70097610571050895D1
:1018F0009B01AC010A2E069457954795379527957D
:10190000BA95C9F7620F731F841F951FA01D089514
:04191000F894FFCF79
:1019140054454D503A2025642E25642043005052EE
:1019240045533A202564204850410000000000003F
:1019340000005F00003E4141413E00427F400042C2
:10194400615149462141454B311814127F102745F6
:101954004545393C4A49493001710905033649492D
:101964004936064949291E003636000000000000A9
:10197400007E1111117E7F494949363E4141412281
:101984007F4141221C7F494941413E4149497A00F6
:00000001FF
