:100000000C9434000C943E000C943E000C943E0082
:100010000C943E000C943E000C943E000C943E0068
:100020000C943E000C943E000C943E000C943E0058
:100030000C943E000C943E000C943E000C943E0048
:100040000C943E000C943E000C943E000C943E0038
:100050000C943E000C943E000C943E000C943E0028
:100060000C943E000C943E0011241FBECFEFD8E04C
:10007000DEBFCDBF0E9466000C9479000C94000096
:1000800010928000E1E8F0E088E0808388E09DE362
:1000900090938900809388001092850010928400CC
:1000A00086B3826086BB808185608083B19BFECFF2
:1000B000109281000895CF9303C00E9440008C2FBE
:1000C000CFEFC80F8111F9CFCF91089584B1876028
:1000D00084B981E085B98AE00E945B0082E085B93D
:1000E00083E00E945B0084E085B98AE00E945B00A7
:0600F000F0CFF894FFCFF1
:00000001FF
