:100000000C9434000C943E000C943E000C943E0082
:100010000C943E000C943E000C943E000C943E0068
:100020000C943E000C943E000C943E000C943E0058
:100030000C943E000C943E000C943E000C943E0048
:100040000C943E000C943E000C943E000C943E0038
:100050000C943E000C943E000C943E000C943E0028
:100060000C943E000C943E0011241FBECFEFD8E04C
:10007000DEBFCDBF0E9440000C947A000C940000BB
:100080008AB180668AB98AB18B7F8AB98BB1846064
:100090008BB98BB180628BB98BB18F7B8BB980E0D0
:1000A0004A99FECF2FEF30E792E021503040904048
:1000B000E1F700C000004A99F3CF811108C08BB16D
:1000C0008F7D8BB98BB180648BB981E007C08BB118
:1000D0008F7B8BB98BB180628BB980E04A9BFECF5E
:1000E0002FEF30E792E0215030409040E1F700C020
:0800F0000000D6CFF894FFCF09
:00000001FF
