S01700004763634170706C69636174696F6E322E737265635A
S11300000C9434000C9449000C9449000C9449005D
S11300100C9449000C9449000C9449000C94490038
S11300200C9449000C9449000C9449000C94490028
S11300300C9449000C9449000C9449000C94490018
S11300400C9449000C9449000C9449000C94490008
S11300500C9449000C9449000C9449000C944900F8
S11300600C9449000C94490011241FBECFEFD8E032
S1130070DEBFCDBF11E0A0E0B1E0ECE4F2E002C0ED
S113008005900D92AA35B107D9F70E944B000C9444
S113009024010C940000CF93DF9300D000D0CDB79F
S11300A0DEB70E94CC000E94B50080E091E00E947F
S11300B0DF000E94EC008F34C1F40E94EC008E3407
S11300C041F484E60E94BE0084E191E00E94DF00D6
S11300D0F0CF863471F70E94EC0080E00E94BE00ED
S11300E084E291E00E94DF00E4CF90ED980F9A3013
S11300F000F7898311E00EC00E94EC008D3061F09E
S11301008A3051F0E1E0F0E0EC0FFD1FE10FF11D4A
S113011080831F5F133080F3E1E0F0E0EC0FFD1FFC
S1130120E10FF11D108230E080E008C0880F282F15
S1130130220F220F820F890F80533F5FE1E0F0E02E
S1130140EC0FFD1FE30FF11D90819111EFCF853668
S113015038F40E94BE0085E391E00E94DF00A9CF3D
S11301608AE491E00E94DF00A4CF8AB180648AB956
S113017083E884BD83E085BD17BC0895282F30E053
S1130180AFEFB0E00E94150124E630E040E050E01B
S11301900E94F30027BD08951092C50087E680935E
S11301A0C40088E18093C10086E08093C200089572
S11301B09091C00095FFFCCF8093C6000895CF9323
S11301C0DF93EC0103C021960E94D800888181113D
S11301D0FACFDF91CF9108958091C0008823E4F78E
S11301E08091C6000895A1E21A2EAA1BBB1BFD0133
S11301F00DC0AA1FBB1FEE1FFF1FA217B307E40702
S1130200F50720F0A21BB30BE40BF50B661F771F59
S1130210881F991F1A9469F7609570958095909539
S11302209B01AC01BD01CF010895A29FB001B39F12
S1130230C001A39F700D811D1124911DB29F700DEB
S10F0240811D1124911D0895F894FFCF36
S113024C4C454420436F6E74726F6C20526561642C
S113025C790D0A004C4544206973206E6F77204F4A
S113026C4E0D0A004C4544206973206E6F77204F65
S113027C46460D0A004272696768746E6573732092
S113028C557064617465640D0A00496E76616C691D
S10D029C642056616C75650D0A00BC
S9030000FC
