:100000000C9434000C9446000C9446000C9446006A
:100010000C9446000C9446000C9446000C94460048
:100020000C9446000C9446000C9446000C94460038
:100030000C9446000C9446000C9446000C94460028
:100040000C9446000C9446000C9446000C94460018
:100050000C9446000C9446000C9446000C94460008
:100060000C9446000C94460011241FBECFEFD8E03C
:10007000DEBFCDBF21E0A0E0B1E001C01D92A43001
:10008000B207E1F70E948B010C94EC010C94000084
:1000900099B1892F847092FD21C02FEF36E791E04E
:1000A000215030409040E1F700C000004A9B10C052
:1000B0000895EFE3FCE93197F1F700C000000A96DC
:1000C000803DF7E09F0730F04A9BFECF82E0089525
:1000D00080E090E04A9BEDCF81E0089580E00895B4
:1000E000982F907F95B995B19E7F95B995B1926003
:1000F00095B9EFE3FFE13197F1F700C0000095B14A
:100100009D7F95B9F0E18F9FC001112485B985B11C
:10011000826085B98FE39FE10197F1F700C000008D
:1001200085B18D7F85B90895982F907F95B995B148
:10013000916095B995B1926095B9EFE3FFE1319780
:10014000F1F700C0000095B19D7F95B9F0E18F9F58
:10015000C001112485B985B1816085B985B18260FE
:1001600085B98FE39FE10197F1F700C0000085B1E9
:100170008D7F85B908958FEF84B92FEF89EF90E0D7
:10018000215080409040E1F700C0000082E00E94D2
:10019000700088E20E9470008CE00E94700086E08F
:1001A0000E94700081E00E947000089581E00E942A
:1001B000700008958F929F92AF92BF92CF92DF927C
:1001C000EF92FF92CF934B015C010E94D600C501D4
:1001D000B40120E031EE45EF55E00E94CA010F2E38
:1001E000FAE0CF2ED12CE12CF12CF02DCA01B9016F
:1001F000A70196010E94CA0180E3860F0E94940025
:10020000C501B40120E836E948E950E00E94CA017E
:10021000CA01B901A70196010E94CA0180E3860FB5
:100220000E949400C501B40120E432E44FE050E0A4
:100230000E94CA01CA01B901A70196010E94CA0120
:1002400080E3860F0E949400C501B40120EA36E8DD
:1002500041E050E00E94CA01CA01B901A70196011C
:100260000E94CA0180E3860F0E949400C501B40178
:1002700020E137E240E050E00E94CA01CA01B90122
:10028000A70196010E94CA0180E3860F0E94940094
:10029000C501B40128EE33E040E050E00E94CA01FD
:1002A000CA01B901A70196010E94CA0180E3860F25
:1002B0000E949400C501B40124E630E040E050E023
:1002C0000E94CA01CA01B901A70196010E94CA0190
:1002D00080E3860F0E949400C501B401A701960136
:1002E0000E94CA01C62FCA01B901A70196010E9446
:1002F000CA0180E3860F0E94940080E38C0F0E9465
:100300009400CF91FF90EF90DF90CF90BF90AF908F
:100310009F908F9008958AB18B7F8AB98BB184604A
:100320008BB90E94BB006091000170910101809126
:100330000201909103010E94DA000E94480081307E
:10034000C9F48091000190910101A0910201B09146
:100350000301BC01CD016F5F7F4F8F4F9F4F6093B3
:1003600000017093010180930201909303010E94A8
:10037000DA00E3CF823009F71092000110920101F8
:10038000109202011092030160E070E0CB010E9424
:10039000DA00D3CFA1E21A2EAA1BBB1BFD010DC0B0
:1003A000AA1FBB1FEE1FFF1FA217B307E407F50725
:1003B00020F0A21BB30BE40BF50B661F771F881F01
:1003C000991F1A9469F760957095809590959B0197
:0C03D000AC01BD01CF010895F894FFCFEF
:00000001FF
