S01700004763634170706C69636174696F6E312E737265635B
S11300000C9434000C9446000C9446000C94460066
S11300100C9446000C9446000C9446000C94460044
S11300200C9446000C9446000C9446000C94460034
S11300300C9446000C9446000C9446000C94460024
S11300400C9446000C9446000C9446000C94460014
S11300500C9446000C9446000C9446000C94460004
S11300600C9446000C94460011241FBECFEFD8E038
S1130070DEBFCDBF21E0A0E0B1E001C01D92A13000
S1130080B207E1F70E945C000C9493000C9400000A
S1130090813049F028F0823049F0833051F00895DE
S11300A080E487BD089580E887BD08958FEB87BD00
S11300B008958FEF87BD08958AB180648AB98AB1A3
S11300C08B7F8AB98BB184608BB983E884BD83E06C
S11300D085BD809100010E9448004A99FECF2FEF10
S11300E080E792E0215080409040E1F700C000009A
S11300F04A99F3CF809100018F5F8093000184308F
S113010010F010920001809100010E9448004A9B67
S1130110FECF2FEF80E792E0215080409040E1F73E
S10D012000C00000DACFF894FFCF0E
S9030000FC
