:100000000C9434000C9446000C9446000C9446006A
:100010000C9446000C9446000C9446000C94460048
:100020000C9446000C9446000C9446000C94460038
:100030000C9446000C9446000C9446000C94460028
:100040000C9446000C9446000C9446000C94460018
:100050000C9446000C9446000C9446000C94460008
:100060000C9446000C94460011241FBECFEFD8E03C
:10007000DEBFCDBF21E0A0E0B1E001C01D92A13004
:10008000B207E1F70E9477000C94CB000C940000BB
:1000900080E480937C0087E880937A000895ECE701
:1000A000F0E09081907F892B8083EAE7F0E0808107
:1000B0008064808380917A0086FDFCCF80917800F7
:1000C00090917900089580E00E944F009C01A4EF78
:1000D000B1E00E94BC00DC01CB01072E7AE0B695AE
:1000E000A795979587957A95D1F7702D08958AB140
:1000F00080648AB98AB18B7F8AB98BB184608BB9ED
:1001000083E884BD83E085BD0E9448004A9913C0FE
:100110002FEF80E792E0215080409040E1F700C04F
:1001200000004A9908C09091000181E089278093DE
:1001300000014A9BFECF80910001882339F00E9484
:1001400063000E94AA000E94BA00E0CF80E00E94F3
:10015000BA00DCCF8931910538F08332910530F057
:100160008D9730F48FEB089580E4089580E808952A
:100170008FEF089587BD0895A29FB001B39FC0017E
:10018000A39F700D811D1124911DB29F700D811DC3
:0A0190001124911D0895F894FFCF8B
:00000001FF
