:100000000C9434000C943E000C943E000C943E0082
:100010000C943E000C943E000C943E000C943E0068
:100020000C943E000C943E000C943E000C943E0058
:100030000C943E000C943E000C943E000C943E0048
:100040000C943E000C943E000C943E000C943E0038
:100050000C943E000C943E000C943E000C943E0028
:100060000C943E000C943E0011241FBECFEFD8E04C
:10007000DEBFCDBF0E945B000C94B8000C94000062
:1000800080E480937C0087E880937A000895ECE711
:10009000F0E09081907F892B8083EAE7F0E0808117
:1000A0008064808380917A0086FDFCCF8091780007
:1000B0009091790008950E9440000E94650080E0C0
:1000C0000E9447000E947500FACF84B1826084B913
:1000D00082E8809380008AE1809381008FE39CE92D
:1000E000909387008093860008959C01A0EDB7E06F
:1000F0000E94A9002FEF33E040E050E00E9487000B
:100100002053384F30938900209388000895A1E24E
:100110001A2EAA1BBB1BFD010DC0AA1FBB1FEE1F81
:10012000FF1FA217B307E407F50720F0A21BB30BCC
:10013000E40BF50B661F771F881F991F1A9469F748
:1001400060957095809590959B01AC01BD01CF01A4
:100150000895A29FB001B39FC001A39F700D811DA0
:100160001124911DB29F700D811D1124911D0895C0
:04017000F894FFCF31
:00000001FF
