S01700004763634170706C69636174696F6E312E737265635B
S11300000C9434000C943E000C943E000C943E007E
S11300100C943E000C943E000C943E000C943E0064
S11300200C943E000C943E000C943E000C943E0054
S11300300C943E000C943E000C943E000C943E0044
S11300400C943E000C943E000C943E000C943E0034
S11300500C943E000C943E000C943E000C943E0024
S11300600C943E000C943E0011241FBECFEFD8E048
S1130070DEBFCDBF0E945B000C9474000C940000A2
S113008080E480937C0087E880937A000895ECE70D
S1130090F0E09081907F892B8083EAE7F0E0808113
S11300A08064808380917A0086FDFCCF8091780003
S11300B09091790008950E9440000E94690080E0B8
S11300C00E94470096958795969587950E947200A1
S11300D0F6CF8AB180648AB983E884BD83E085BDA4
S10F00E017BC089587BD0895F894FFCF65
S9030000FC
